:0800DD0012000343D81080FB60
:10000300900A0574A5F0900A007458F0900A0674DB
:1000130010F0900A027403F0900A077401F090053F
:1000230016E4F075A88575B80175880590050F74F9
:1000330005F090051B7403F075A280900700747F90
:10004300F0E4F5A175B20890070274F7F075B108F2
:100053009007077430F075AA0890070174F7F0E46D
:10006300F5A99009007498F0A37404F090090B04A7
:10007300F090090A7440F0900D017442F090051558
:100083007409F09007057440F09005047423F0A3FD
:10009300740CF0A37404F090051104F075CB58E4CC
:1000A300F5CD75CE069008067420F075D93875DA4B
:0C00B3000175D82843D8107FFA0200BF66
:1000BF00AD071FED600B7E05EED3940040F21E805E
:0100CF00F739
:0100D000220D
:030000000200D12A
:0C00D100787FE4F6D8FD7581070200DDA1
:00000001FF
