:0F00D50012000343D81090090AE04402F080F4AF
:10000300900A0574A5F0900A007458F0900A0674DB
:1000130010F0900A027402F0900A07E4F0900516BB
:10002300F075A88575B80175880590050F7405F0FE
:1000330090051B7403F075A20190070074FEF0E4B1
:10004300F5A175B20890070274F7F075B10890072F
:10005300077430F075AA0890070174F7F0E4F5A966
:100063009009047420F0A3E4F0A37410F0A3E4F067
:1000730090090B740AF090090A7480F0900D0174D2
:1000830042F09005157409F09007057440F090054F
:10009300047423F0A3740CF0A37404F0900511040A
:1000A300F075CB58E4F5CD75CE069008067420F0B4
:1000B300F5D975DA0275D82843D8107FFA0200C340
:1000C300AD071FED600B7E05EED3940040F21E805A
:0100D300F735
:0100D4002209
:030000000200E417
:0C00E400787FE4F6D8FD7581070200D596
:00000001FF
