:100003001200CE750840900515E508F0E04420F095
:100013007F06120185900515E054DFF0E4F5097FB2
:10002300FA1201850509E509C394C840F2E4F5090C
:100033007FFA1201850509E509C394C840F2E4F586
:10004300097FFA1201850509E509C394C840F2E462
:10005300F5097FFA1201850509E509C394C840F241
:10006300E4F5097FFA1201850509E509C394C8403F
:10007300F2E4F5097FFA1201850509E509C394C87D
:1000830040F2E4F5097FFA1201850509E509C394F5
:10009300C840F2E4F5097FFA1201850509E509C3B1
:1000A30094C840F2E4F5097FFA1201850509E509D0
:1000B300C394C840F2E4F5097FFA1201850509E506
:0B00C30009C394C840F20508020009C0
:1000CE00900A0574A5F0900A007458F0900A067410
:1000DE0010F0900A027403F0900A077401F0900574
:1000EE0016E4F075A88575B80175880590050F742E
:1000FE0005F090051B7403F075A20190070074FEC5
:10010E00F0E4F5A175B20890070274F7F075B10826
:10011E009007077430F075AA0890070174F7F0E4A1
:10012E00F5A99009007498F0A37404F090090B04DB
:10013E00F090090A7440F0900D017442F09005158C
:10014E007440F0900705F09005047423F0A3740C2E
:10015E00F0A37404F090051104F075CB58E4F5CDBE
:10016E0075CE069008067420F075D93875DA0143FD
:07017E00D8107FFA02018591
:10018500AD071FED600B7E05EED3940040F21E8097
:01019500F772
:010196002246
:0300000002019763
:0C019700787FE4F6D8FD758109020003B2
:00000001FF
