:0500A50012000380FEC3
:10000300900A0574A5F0900A007458F0900A0674DB
:1000130010F0900A027403F0900A077401F090053F
:1000230016E4F075A88575B80175880590050F74F9
:1000330005F090051B7403F075A2FF900700E4F030
:10004300F5A175B20890070274F7F075B10890072F
:10005300077430F075AA0890070174F7F0E4F5A966
:100063009005047423F0A3740CF0A37404F09005BA
:100073001104F075D901E4F5DA75D82843D8107F57
:04008300FA020087F6
:10008700AD071FED600B7E05EED3940040F21E8096
:01009700F771
:010098002245
:0300000002009962
:0C009900787FE4F6D8FD7581070200A511
:00000001FF
