:100264000495049004800460043003C00320025009
:100274004F4E0F0E4D4C0D0C4B4A0B0A49480908C2
:0C028400474607064544050443420302B8
:1001EB00120016120290E4F513F522F52AF50D759F
:1001FB001001F50A751201F51AF52BF52CF50EF514
:10020B0026F516F50BF519F51FF51CF508F509750F
:0E021B00180EF514F51543D81012017780F86F
:10001600900A0574A5F0900A007458F0900A0674C8
:1000260010F0900A027403F0900A077401F090052C
:1000360016E4F075A88575B80175880590050F74E6
:1000460005F090051B7403F075A20190070074FE7D
:10005600F0E4F5A175B20890070274F7F075B108DF
:100066009007077430F075AA0890070174F7F0E45A
:10007600F5A99009007498F0A37404F090090B0494
:10008600F090090A7440F0900D017442F090051545
:100096007409F09007057480F09005047423F0A3AA
:1000A600740CF0A37404F090051104F075CB58E4B9
:1000B600F5CD75CE06900803740DF09008067420F1
:1000C600F075D93875DA0175D82843D81090070726
:1000D600E04408F090050FE04402F0A37466F09047
:1000E6000C04E4F0900C03F0900C007410F0E4FFA4
:1000F600EFC39401900C0050057413F08003741143
:10010600F0900C01E030E0F9900C02E0FE742D2F27
:10011600F8A6060FBF02D9E52EF4652D6005751DFC
:10012600608003852D1D851D11E51D24F6F52975B5
:1001360011C0751DC07FFA1202A67FFA1202A67FB1
:10014600FA1202A67FFA1202A67FFA1202A67FFA16
:100156001202A67FFA1202A67FFA1202A67FFA12EE
:1001660002A67FFA1202A67FFA1202A67FFA0202FE
:01017600A6E2
:1002A600AD071FED600B7E05EED3940040F21E8075
:0102B600F750
:0102B7002224
:10029000E4F58D758B33438602F589758628F5C89C
:0602A000759850F59A224A
:10017700E5156402706D900502742AF07F0512027E
:10018700A6E04480F07F011202A6E0547FF07F01D1
:100197001202A6900502E020E6F97F011202A6E40A
:1001A700F5A87F011202A6900501E0F51E7F011256
:1001B70002A6900500E0C4540FF5207F011202A6A5
:1001C70075A885900502E4F0E527B46813E521B426
:1001D700810C7F011202A6851E99751503228000E6
:0401E700E4F5152204
:03001300020229BD
:10022900C0E0C0D0E59830E01A5398FE859921E5E1
:100239001570078521270515801CE515B4011705DB
:10024900158013E59830E10E5398FDE515B40306C2
:0B025900852099751500D0D0D0E03250
:03000000020003F8
:0C000300787FE4F6D8FD75812E0201EB39
:00000001FF
