:0F006F0012000343D810900402E04420F080F404
:10000300900A0574A5F0900A007458F0900A0674DB
:1000130010F0900A027403F0900A077401F090053F
:1000230016E4F075A88575B80175880590050F74F9
:1000330005F090051B7403F0900400E4F0900402B3
:100043007418F075A2C075A1C075D93875DA017539
:0A005300D82843D8107FFA02005DA0
:10005D00AD071FED600B7E05EED3940040F21E80C0
:01006D00F79B
:01006E00226F
:0300000002007E7D
:0C007E00787FE4F6D8FD75810702006F62
:00000001FF
