:1005ED000495049004800460043003C0032002507D
:1005FD004F4E0F0E4D4C0D0C4B4A0B0A4948090836
:0C060D004746070645440504434203022B
:10058900120385E4F51BF526F52DF515751801F50A
:1005990012751A01F521F52EF52FF516F52AF51D17
:1005A900F513F520F525F523F510F511751F0EF551
:0605B9001C43D81080FB7A
:10038500900A0574A5F0900A007458F0900A067456
:1003950010F0900A0274C2F0900A07740CF09005F0
:1003A50016E4F075A88575B80175880590050F7474
:1003B50005F090051B7403F075AA0890070174F702
:1003C500F0E4F5A99009007498F0A37404F090097D
:1003D5000B04F090090A7440F0900D017442F090FE
:1003E50005117405F075CB58E4F5CD75CE0690086A
:1003F5000274DFF09008067420F075D93875DA01BB
:1004050075D82843D810900505E4F090050CF0A3A5
:10041500743FF0900C04E4F0900C03F0900C007421
:1004250010F0E4FFEFC39401900C0050057413F035
:1004350080037411F0900C01E030E0F9900C02E0BB
:10044500FE74332FF8A6060FBF02D9E534F46533E1
:1004550060057524608003853324852419E52424EB
:10046500F6F52C7519C07524C053B1F77FFA12063D
:10047500577FFA1206577FFA1206577FFA12065768
:0304850043B10878
:010488002251
:10001600E51BC39518500302026AE4F51B43D8108A
:1000260090050F7405F090051B7403F012064075D9
:10003600CDC075CEFF43CB08751C01438702000077
:10004600000053CBF790051BE4F0F51C90050674F1
:1000560010F0900505E04401F09005107446F07F1D
:1000660014120645E52975F010A4FDACF0E4C4F8B9
:1000760054F0C868FEE52BC4540F482DFDEE3CFC39
:10008600E511451070028021E5112408FFE43510C2
:10009600FEC3ED9FEC9E5011E51124F8FFE51034E8
:1000A600FFFED3ED9FEC9E50077514018C108D1149
:1000B600E51470030201BBE4F514753118D3ED9411
:1000C60080EC940A4008E51F9005FE0201B6D3EDC8
:1000D60094AAEC94094011D3ED9480EC940A50084C
:1000E600E51F9005FD0201B6D3ED9455EC94094049
:1000F60011D3ED94AAEC94095008E51F9005FC0273
:1001060001B6D3ED9400EC94094011D3ED9455EC6F
:1001160094095008E51F9005FB0201B6D3ED94AA99
:10012600EC94084010D3ED9400EC94095007E51FB9
:100136009005FA807BD3ED9480EC94084010D3EDC3
:1001460094AAEC94085007E51F9005F98062D3ED58
:100156009455EC94084010D3ED9480EC9408500725
:10016600E51F9005F88049D3ED942AEC94084010D9
:10017600D3ED9455EC94085007E51F9005F68030B2
:10018600D3ED9400EC94084010D3ED942AEC940837
:100196005007E51F9005F48017D3ED94D5EC94072E
:1001A6004013D3ED9400EC9408500AE51F9005F235
:1001B60093900515F0E527C395284008E52795286F
:1001C600F5278003E4F527E52A6004E5136070E56A
:1001D60027D39519404D0512E512D39403400375B4
:1001E6001203E512B4010B75180175CD8075CEC1E9
:1001F600800EE512B4020E75180175CDC075CEE0FD
:1002060043CB08801275180275CD6075CEF043CBCE
:1002160008751501752601751D01E513702A852CD3
:10022600198025E4F512751801852419F515F526AA
:1002360090090AE054FEF0751A01E4F52D8001E4F8
:10024600F5CD75CE0643CB08051EE52A7009E51ED9
:10025600C39408400F8007E51EC394014006751D30
:0402660001E4F51E9C
:01026A002271
:1004EF00E526C39401404FE515604B751D01E4F5FA
:1004FF0026F52590090AE030E008E054FEF0751A61
:10050F000122E52DC394084003752D07E52D25E045
:10051F0024EDF582E43405F583E493FE74019390A2
:10052F000902F0EEA3F090090AE04440F0E0440124
:07053F00F0052DE4F51A227E
:10026B00E5A120E660E521705C7FFA120645E5A169
:10027B0030E603020320E521600302032075210110
:10028B00E5156401701E752A017519FFF5127518B5
:10029B0001F51BF51590090AE054FEF0751A01E4FF
:1002AB00F5268065751301E4F519751202751802B0
:1002BB00751B01E52A6003852F1612064075CD606C
:1002CB0075CEF0804DE5A130E64BE52160477FFA16
:1002DB00120645E5A130E63DE5216039E4F521F54F
:1002EB001590090AE054FEF0E4F52DE52A7003851C
:1002FB002419E4F512751801751A01F513F525E5A6
:10030B002A6006752E0085162F120640E4F5CD7572
:10031B00CE0643CB08E5A120E15FE522705B7F01B0
:10032B00120645E5A120E151E522704D75220190A1
:10033B000705E04480F0759850E4F5C8F589F58D14
:10034B00758B0C75862A900803E054FDF0E4F523B9
:10035B00751BAA53B1F7E522640160FAE522B404D8
:10036B0018E4F51B851999E52270FC900803E0440D
:0A037B0002F0900705E0547FF02225
:10048900C3E52F9432E52E9400400EE4F52AF52EAB
:10049900F52FF516852419F525E51D600EE4F51DE2
:1004A90053B1F77FFA12064543B108E5157036E5F1
:1004B90025C39402402FE4F5259009027450F0A356
:1004C9007402F090090AE04440F0E04401F053B1AD
:1004D900F77FFA12064543B1087FFA1206459009DB
:0604E9000AE054FEF022BF
:1005BF00900A07E020E426E51A602290050F7404E4
:1005CF00F090051BE4F0E5A130E606900D007442B3
:0E05DF00F043870200000000900D00E4F022BF
:10065700AD071FED600B7EFAEED3940040F21E80CB
:01066700F79B
:01066800226F
:0506400053CBF77F140D
:10064500AD071FED600B7E05EED3940040F21E80D2
:01065500F7AD
:010656002281
:03000300020619D9
:10061900C0E0E5CF30E11D53CFFDE51C7016051B89
:100629000526E52A6008052FE52F7002052EE5202D
:0706390060020525D0E0324C
:030013000205469D
:07054600C0E0C0D075D00831
:10054D00E59830E0275398FEAF99BFAA05752202B2
:10055D00801ABFA0057522048012BF5505752301B1
:10056D00800AE523B401058F17752203E59830E164
:07057D00065398FD752200F2
:05058400D0D0D0E032F0
:03000000020006F5
:0C000600787FE4F6D8FD7581340205898E
:00000001FF
