:100062001200037F3212007843D81063A1FF63A904
:06007200FF63B1FF80ED09
:10000300900A0574A5F0900A007458F0900A0674DB
:1000130010F0900A027403F0900A077401F090053F
:1000230016E4F075A88575B80175880590050F74F9
:1000330005F075A2FF900700E4F0F5A175B2FF90FB
:100043000702F0F5B175AAFF900701F0F5A975D97C
:0F0053003875DA0175D82843D8107FFA02007883
:10007800AD071FED600B7E05EED3940040F21E80A5
:01008800F780
:010089002254
:0300000002008A71
:0C008A00787FE4F6D8FD75810702006263
:00000001FF
