:1000DF001200164387020000000043D81090090A4F
:0600EF00E04402F080F481
:10001600900A0574A5F0900A007458F0900A0674C8
:1000260010F0900A027403F0900A077401F090052C
:1000360016E4F075A88575B80175880590050F74E6
:1000460005F090051B7403F075A20190070074FE7D
:10005600F0E4F5A175B20890070274F7F075B108DF
:100066009007077430F075AA0890070174F7F0E45A
:10007600F5A99009047428F0A3E4F0A37414F0A37E
:10008600E4F090090B740AF090090A7480F0900D60
:10009600017442F09005157409F09007057440F05C
:1000A6009005047423F0A3740CF0A37404F0900577
:1000B6001104F075CB58E4F5CD75CE06900803749F
:1000C6000EF09008067420F075D93875DA0175D8E7
:0900D6002443D8107FFA0200F562
:1000F500AD071FED600B7E05EED3940040F21E8028
:01010500F702
:0101060022D6
:0300130002000FD9
:04000F0053D87F3211
:03000000020003F8
:0C000300787FE4F6D8FD7581070200DF6D
:00000001FF
