:10015D001200161201E5E4F50843D8101200EA7FEB
:10016D00FA1201FB7FFA1201FB7FFA1201FB7FFAF3
:10017D001201FB7FFA1201FB7FFA1201FB7FFA12CB
:10018D0001FB7FFA1201FB7FFA1201FB7FFA1201CC
:0D019D00FB7FFA1201FB7FFA1201FB80BC10
:10001600900A0574A5F0900A007458F0900A0674C8
:1000260010F0900A027403F0900A077401F090052C
:1000360016E4F075A88575B80175880590050F74E6
:1000460005F090051B7403F075A20190070074FE7D
:10005600F0E4F5A175B20890070274F7F075B108DF
:100066009007077430F075AA0890070174F7F0E45A
:10007600F5A99009007498F0A37404F090090B0494
:10008600F090090A7440F0900D017442F090051545
:100096007409F09007057480F09005047423F0A3AA
:1000A600740CF0A37404F090051104F075CB58E4B9
:1000B600F5CD75CE06900803740DF09008067420F1
:1000C600F075D93875DA0175D82843D81090070726
:1000D600E04408F090050FE04402F0A37466F07F58
:0400E600FA0201FB1E
:1001FB00AD071FED600B7E05EED3940040F21E8021
:01020B00F7FB
:01020C0022CF
:1001E500E4F58D758B33438602F589758628F5C848
:0601F500759850F59A22F6
:1000EA00E508706E900502742AF07F051201FBE0A4
:1000FA004480F07F011201FBE0547FF053B1F79086
:10010A000502E020E6F943B1087F011201FBE4F59C
:10011A00A87F011201FB900501E0F5097F01120198
:10012A00FB900500E0C4540FF50A7F011201FB752C
:10013A00A885900502E4F0E50CB46813E50BB481D8
:10014A000C7F011201FB850999750803228000E4DE
:03015A00F5082283
:030013000201AA3D
:1001AA00C0E0C0D0E59830E01A5398FE85990BE577
:1001BA00087007850B0C0508801CE508B4011705B3
:1001CA00088013E59830E10E5398FDE508B403065C
:0B01DA00850A99750800D0D0D0E032F3
:03000000020003F8
:0C000300787FE4F6D8FD75810C02015DE9
:00000001FF
