:0C00DE001200034387020000000080F7BE
:10000300900A0574A5F0900A007458F0900A0674DB
:1000130010F0900A027403F0900A077401F090053F
:1000230016E4F075A88575B80175880590050F74F9
:1000330005F090051B7403F075A20190070074FE90
:10004300F0E4F5A175B20890070274F7F075B108F2
:100053009007077430F075AA0890070174F7F0E46D
:10006300F5A99009007498F0A37404F090090B04A7
:10007300F090090A7440F0900D017442F090051558
:100083007409F09007057480F09005047423F0A3BD
:10009300740CF0A37404F090051104F075CB50E4D4
:1000A300F5CD75CE069008067420F075D93875DA4B
:1000B30001E4F5D843D810900707E04408F0900511
:0900C300027460F07FFA0200CC27
:1000CC00AD071FED600B7E05EED3940040F21E8051
:0100DC00F72C
:0100DD002200
:030000000200EA11
:0C00EA00787FE4F6D8FD7581070200DE87
:00000001FF
