:1000BC00120003750840900515E04420F07F0612ED
:1000CC00013D900515E054DFF0E4F5097FFA1201CB
:1000DC003D0509E509C394C840F2E4F5097FFA121D
:1000EC00013D0509E509C394C840F2E4F5097FFA1E
:1000FC0012013D0509E509C394C840F2E4F5097FF6
:10010C00FA12013D0509E509C394C840F2E4F5096A
:10011C007FFA12013D0509E509C394C840F2E4F5E4
:10012C0009E509C394C8508E7FFA12013D05098078
:01013C00F0D2
:10000300900A0574A5F0900A007458F0900A0674DB
:1000130010F0900A027403F0900A077401F090053F
:1000230016E4F075A88575B80175880590050F74F9
:1000330005F090051B7403F075A20190070074FE90
:10004300F0E4F5A175B20890070274F7F075B108F2
:100053009007077430F075AA0890070174F7F0E46D
:10006300F5A99009007498F0A37404F090090B04A7
:10007300F090090A7440F0900D017442F090051558
:10008300744FF09007057440F09005047423F0A3B7
:10009300740CF0A37404F090051104F075CB58E4CC
:1000A300F5CD75CE069008067420F075D93875DA4B
:0900B3000143D8107FFA02013D5F
:10013D00AD071FED600B7E05EED3940040F21E80DF
:01014D00F7BA
:01014E00228E
:0300000002014FAB
:0C014F00787FE4F6D8FD7581090200BC41
:00000001FF
