:1001AC000495049004800460043003C003200250C2
:1001BC004F4E0F0E4D4C0D0C4B4A0B0A494809087B
:0C01CC0047460706454405044342030271
:10015200120003E4F513F51EF525F50D751001F5F2
:100162000A751201F519F526F527F50EF522F51592
:10017200F50BF518F51DF51BF508F50975170EF5C4
:100182001443D81090050F7405F090051B7403F00A
:100192009005107445F090050F7401F0A3E044201F
:0A01A200F0900514E04401F080D74E
:10000300900A0574A5F0900A007458F0900A0674DB
:1000130010F0900A027403F0900A077401F090053F
:1000230016E4F075A88575B80175880590050F74F9
:1000330005F090051B7403F075A20190070074FE90
:10004300F0E4F5A175B20890070274F7F075B108F2
:100053009007077430F075AA0890070174F7F0E46D
:10006300F5A99009007498F0A37404F090090B04A7
:10007300F090090A7440F0900D017442F090051558
:100083007409F09007057440F09005047423F0A3FD
:10009300740CF0A37404F090051104F075CB58E4CC
:1000A300F5CD75CE0690080274DFF0900806742033
:1000B300F075D93875DA0175D82843D810900C0437
:1000C300E4F0900C03F0900C007410F0E4FFEFC325
:1000D3009401900C0050057413F080037411F09098
:1000E3000C01E030E0F9900C02E0FE74282FF8A632
:1000F300060FBF02D9E529F465286005751C6080E9
:100103000385281C851C11E51C24F6F5247511C0F4
:10011300751CC07FFA1201D87FFA1201D87FFA1238
:1001230001D87FFA1201D87FFA1201D87FFA12019F
:10013300D87FFA1201D87FFA1201D87FFA1201D8B8
:0F0143007FFA1201D87FFA1201D87FFA0201D891
:1001D800AD071FED600B7E05EED3940040F21E8044
:0101E800F71F
:0101E90022F3
:030000000201EA10
:0C01EA00787FE4F6D8FD758129020152EF
:00000001FF
