:1007EF000495049004800460043003C00320025079
:1007FF004F4E0F0E4D4C0D0C4B4A0B0A4948090832
:0C080F0047460706454405044342030227
:1007860012040EE4F51BF526F52DF515751801F581
:1007960012751A01F521F52EF52FF516F52AF51D18
:1007A600F513F520F525F523F510F511751F0EF552
:0B07B6001C7FFA1208471207C180F6F2
:10040E00900A0574A5F0900A007458F0900A0674CC
:10041E0010F0900A027403F0900A077401F0900530
:10042E0016E4F075A88575B80175880590050F74EA
:10043E0005F090051B7403F075A20190070074FE81
:10044E00F0E4F5A175B20890070274F7F075B108E3
:10045E009007077430F075AA0890070174F7F0E45E
:10046E00F5A99009007498F0A37404F090090B0498
:10047E00F090090A7440F0900D017442F090051549
:10048E007409F09007057440F09005047420F09004
:10049E000506740CF0900505744FF0900507744036
:1004AE00F0A3744FF0A37410F09005117405F0755D
:1004BE00CB50E4F5CD75CE0690080274DFF09008AF
:1004CE00067420F075D93875DA01F5D843D8109036
:1004DE000C04E4F0900C03F0900C007410F0E4FFA8
:1004EE00EFC39401900C0050057413F08003741147
:1004FE00F0900C01E030E0F9900C02E0FE74332F26
:10050E00F8A6060FBF02D9E534F4653360057524ED
:10051E00608003853324852419E52424F6F52C7593
:10052E0019C07524C07FFA1208477FFA1208477F58
:10053E00FA1208477FFA1208477FFA1208477FFA25
:10054E001208477FFA1208477FFA1208477FFA12FD
:10055E0008477FFA1208477FFA1208477FFA020807
:01056E004745
:10001600E51BC39518500302040DE4F51B43D810E5
:1000260090050F7405F090051B7403F012084275D5
:10003600CDC075CEFF43CB08751C01438702000077
:10004600000053CBF7E4F51C9005067410F09005FC
:1000560005E04401F09005107446F07F141208473D
:10006600900510E04420F0900706E04470F09005FB
:1000760010E04410F0900502743BF0E4F530900572
:1000860002E04480F0E0547FF0900502E020E6F9BB
:100096000530E530B405E7900501E0F52990050047
:1000A600E0F52B900502E4F0900510E054DFF0E057
:1000B60054EFF0900706E0548FF0E52975F010A490
:1000C600FDACF0E4C4F854F0C868FEE52BC4540F48
:1000D600482DFDEE3CFCE511451070028021E5112E
:1000E6002408FFE43510FEC3ED9FEC9E5011E51188
:1000F60024F8FFE51034FFFED3ED9FEC9E50077504
:1001060014018C108D11E5147003020211E4F5142C
:10011600753118D3ED9480EC940A4008E51F9008D9
:100126000002020CD3ED94AAEC94094011D3ED948D
:1001360080EC940A5008E51F9007FF02020CD3EDED
:100146009455EC94094011D3ED94AAEC9409500807
:10015600E51F9007FE02020CD3ED9400EC940940D3
:1001660011D3ED9455EC94095008E51F9007FD0254
:10017600020CD3ED94AAEC94084010D3ED9400EC55
:1001860094095007E51F9007FC807BD3ED9480EC23
:1001960094084010D3ED94AAEC94085007E51F90FC
:1001A60007FB8062D3ED9455EC94084010D3ED9490
:1001B60080EC94085007E51F9007FA8049D3ED9428
:1001C6002AEC94084010D3ED9455EC94085007E5BA
:1001D6001F9007F88030D3ED9400EC94084010D3BC
:1001E600ED942AEC94085007E51F9007F68017D384
:1001F600ED94D5EC94074013D3ED9400EC9408509D
:100206000AE51F9007F493900515F090050F740109
:10021600F0900506E04401F07F05120847900506B8
:10022600E04402F0900515E054DFF0900510E0443C
:1002360020F09005027436F0E04480F0E0547FF040
:10024600900502E020E6F9900501E0F528A3E4F028
:10025600900510E054DFF0900506E054FCF0E04411
:1002660002F0900515E04420F0900506E054FDF0FC
:10027600E04401F07F05120847900506E04402F0CD
:10028600900515E054DFF0900511E04410F090055C
:1002960010E04420F09005027436F0E04480F0E06F
:1002A600547FF0900502E020E6F9900501E0F5277D
:1002B600A3E4F0900510F0A3E030E5057520018079
:1002C60005E4F520F525900511E054EFF0900506BC
:1002D6007404F090050FF090051BE4F0900505E01E
:1002E60054FEF0E527C395284008E5279528F5270D
:1002F6008003E4F527E522B40209852799E52270F3
:10030600FC8059E52264037061E5272517F531F471
:10031600F532900C04E4F0900C03F0900C0074207D
:10032600F0E4F53074312530F8E6900C02F0E53053
:10033600C39401900C0050057423F080037421F0DF
:10034600900C01E030E1F90530E530B402D69005B5
:1003560015E517F02527F599E52270FC900803E0CE
:100366004402F0900705E0547FF0E52A6004E513A7
:100376006070E527D39519404D0512E512D3940315
:100386004003751203E512B4010B75180175CD8093
:1003960075CEC1800EE512B4020E75180175CDC07A
:1003A60075CEE043CB08801275180275CD6075CE08
:1003B600F043CB08751501752601751D01E513700F
:1003C6002A852C198025E4F512751801852419F55E
:1003D60015F52690090AE054FEF0751A01E4F52D8C
:1003E6008001E4F5CD75CE0643CB08051EE52A70DF
:1003F60009E51EC39408400F8007E51EC39401401B
:0704060006751D01E4F51E5F
:01040D0022CC
:1006EC00E526C39401404FE515604B751D01E4F5FB
:1006FC0026F52590090AE030E008E054FEF0751A62
:10070C000122E52DC394084003752D07E52D25E046
:10071C0024EFF582E43407F583E493FE740193909F
:10072C000902F0EEA3F090090AE04440F0E0440125
:07073C00F0052DE4F51A227F
:10056F00E5A120E660E521705C7FFA120847E5A15E
:10057F0030E603020624E5216003020624752101FB
:10058F00E5156401701E752A017519FFF5127518AE
:10059F0001F51BF51590090AE054FEF0751A01E4F8
:1005AF00F5268065751301E4F519751202751802A9
:1005BF00751B01E52A6003852F1612084275CD6061
:1005CF0075CEF0804DE5A130E64BE52160477FFA0F
:1005DF00120847E5A130E63DE5216039E4F521F544
:1005EF001590090AE054FEF0E4F52DE52A70038515
:1005FF002419E4F512751801751A01F513F525E59F
:10060F002A6006752E0085162F120842E4F5CD7567
:10061F00CE0643CB08E5A120E15CE52270587F01AF
:10062F00120847E5A120E14EE522704A752201909C
:10063F000705E04480F0759850E4F5C8F589F58D0D
:10064F00758B0C75862A900803E054FDF0E4F523B2
:10065F00751BAAE522640160FAE522B40418E4F5DB
:10066F001B851999E52270FC900803E04402F09075
:07067F000705E0547FF022A3
:10068600C3E52F9432E52E9400400EE4F52AF52EAC
:10069600F52FF516852419F525E51D600EE4F51DE3
:1006A60053B1F77FFA12084743B108E5157036E5EE
:1006B60025C39405402FE4F5259009027450F0A354
:1006C6007402F090090AE04440F0E04401F053B1AE
:1006D600F77FFA12084743B1087FFA1208479009D4
:0606E6000AE054FEF022C0
:1007C100900A07E020E426E51A602290050F7404E0
:1007D100F090051BE4F0E5A130E606900D007442AF
:0E07E100F043870200000000900D00E4F022BB
:0508420053CBF77F1409
:10084700AD071FED600B7E05EED3940040F21E80CE
:01085700F7A9
:01085800227D
:0300030002081BD5
:10081B00C0E0E5CF30E11D53CFFDE51C7016051B85
:10082B000526E52A6008052FE52F7002052EE52029
:07083B0060020525D0E03248
:030013000207439E
:07074300C0E0C0D075D00832
:10074A00E59830E0275398FEAF99BFAA05752202B3
:10075A00801ABFA0057522048012BF5505752301B2
:10076A00800AE523B401058F17752203E59830E165
:07077A00065398FD752200F3
:05078100D0D0D0E032F1
:03000000020006F5
:0C000600787FE4F6D8FD7581340207868F
:00000001FF
