:100608000495049004800460043003C00320025061
:100618004F4E0F0E4D4C0D0C4B4A0B0A494809081A
:0C06280047460706454405044342030210
:1005A40012026BE4F51BF526F52DF515751801F50A
:1005B40012751A01F521F52EF52FF516F52AF51DFC
:1005C400F513F520F525F523F510F511751F0EF536
:0605D4001C43D81080FB5F
:10026B00900A0574A5F0900A007458F0900A067471
:10027B0010F0900A0274C2F0900A07740CF090050B
:10028B0016E4F075A88575B80175880590050F748F
:10029B0005F090051B7403F075AA0890070174F71D
:1002AB00F0E4F5A99009007498F0A37404F0900998
:1002BB000B04F090090A7440F0900D017442F09019
:1002CB0005117405F075CB58E4F5CD75CE06900885
:1002DB000274DFF09008067420F075D93875DA01D6
:1002EB0075D82843D810900505E4F090050A7420C2
:1002FB00F090050CE4F090050B741FF090050D7455
:10030B003FF09005107410F09007067474F0900C89
:10031B0004E4F0900C03F0900C007410F0E4FFEF89
:10032B00C39401900C0050057413F080037411F00A
:10033B00900C01E030E0F9900C02E0FE74332FF8E2
:10034B00A6060FBF02D9E534F4653360057524604A
:10035B008003853324852419E52424F6F52C75199F
:10036B00C07524C053B1F77FFA1206727FFA1206DA
:0E037B00727FFA1206727FFA12067243B10800
:010389002251
:10001600E51BC39518500302026AE4F51B43D8108A
:1000260090050F7405F090051B7403F012065B75BE
:10003600CDC075CEFF43CB08751C01438702000077
:10004600000053CBF790051BE4F0F51C90050674F1
:1000560010F0900505E04401F09005107446F07F1D
:1000660014120660E52975F010A4FDACF0E4C4F89E
:1000760054F0C868FEE52BC4540F482DFDEE3CFC39
:10008600E511451070028021E5112408FFE43510C2
:10009600FEC3ED9FEC9E5011E51124F8FFE51034E8
:1000A600FFFED3ED9FEC9E50077514018C108D1149
:1000B600E51470030201BBE4F514753118D3ED9411
:1000C60080EC940A4008E51F9006190201B6D3EDAC
:1000D60094AAEC94094011D3ED9480EC940A50084C
:1000E600E51F9006180201B6D3ED9455EC9409402D
:1000F60011D3ED94AAEC94095008E51F9006170257
:1001060001B6D3ED9400EC94094011D3ED9455EC6F
:1001160094095008E51F9006160201B6D3ED94AA7D
:10012600EC94084010D3ED9400EC94095007E51FB9
:10013600900615807BD3ED9480EC94084010D3EDA7
:1001460094AAEC94085007E51F9006148062D3ED3C
:100156009455EC94084010D3ED9480EC9408500725
:10016600E51F9006138049D3ED942AEC94084010BD
:10017600D3ED9455EC94085007E51F900611803096
:10018600D3ED9400EC94084010D3ED942AEC940837
:100196005007E51F90060F8017D3ED94D5EC940712
:1001A6004013D3ED9400EC9408500AE51F90060D19
:1001B60093900515F0E527C395284008E52795286F
:1001C600F5278003E4F527E52A6004E5136070E56A
:1001D60027D39519404D0512E512D39403400375B4
:1001E6001203E512B4010B75180175CD8075CEC1E9
:1001F600800EE512B4020E75180175CDC075CEE0FD
:1002060043CB08801275180275CD6075CEF043CBCE
:1002160008751501752601751D01E513702A852CD3
:10022600198025E4F512751801852419F515F526AA
:1002360090090AE054FEF0751A01E4F52D8001E4F8
:10024600F5CD75CE0643CB08051EE52A7009E51ED9
:10025600C39408400F8007E51EC394014006751D30
:0402660001E4F51E9C
:01026A002271
:10050A00E526C39401404FE515604B751D01E4F5DE
:10051A0026F52590090AE030E008E054FEF0751A45
:10052A000122E52DC394084003752D07E52D25E02A
:10053A002408F582E43406F583E493FE740193906B
:10054A000902F0EEA3F090090AE04440F0E0440109
:07055A00F0052DE4F51A2263
:10038A00E5A120E660E521705C7FFA120660E5A12E
:10039A0030E60302043FE521600302043F752101B0
:1003AA00E5156401701E752A017519FFF512751895
:1003BA0001F51BF51590090AE054FEF0751A01E4DF
:1003CA00F5268065751301E4F51975120275180290
:1003DA00751B01E52A6003852F1612065B75CD6031
:1003EA0075CEF0804DE5A130E64BE52160477FFAF6
:1003FA00120660E5A130E63DE5216039E4F521F514
:10040A001590090AE054FEF0E4F52DE52A700385FB
:10041A002419E4F512751801751A01F513F525E585
:10042A002A6006752E0085162F12065BE4F5CD7537
:10043A00CE0643CB08E5A120E15FE522705B7F0190
:10044A00120660E5A120E151E522704D7522019066
:10045A000705E04480F0759850E4F5C8F589F58DF4
:10046A00758B0C75862A900803E054FDF0E4F52399
:10047A00751BAA53B1F7E522640160FAE522B404B8
:10048A0018E4F51B851999E52270FC900803E044ED
:0A049A0002F0900705E0547FF02205
:1004A400C3E52F9432E52E9400400EE4F52AF52E90
:1004B400F52FF516852419F525E51D600EE4F51DC7
:1004C40053B1F77FFA12066043B108E5157036E5BB
:1004D40025C39402402FE4F5259009027450F0A33B
:1004E4007402F090090AE04440F0E04401F053B192
:1004F400F77FFA12066043B1087FFA12066090098A
:060504000AE054FEF022A3
:1005DA00900A07E020E426E51A602290050F7404C9
:1005EA00F090051BE4F0E5A130E606900D00744298
:0E05FA00F043870200000000900D00E4F022A4
:10067200AD071FED600B7EFAEED3940040F21E80B0
:01068200F780
:010683002254
:05065B0053CBF77F14F2
:10066000AD071FED600B7E05EED3940040F21E80B7
:01067000F792
:010671002266
:03000300020634BE
:10063400C0E0E5CF30E11D53CFFDE51C7016051B6E
:100644000526E52A6008052FE52F7002052EE52012
:0706540060020525D0E03231
:0300130002056182
:07056100C0E0C0D075D00816
:10056800E59830E0275398FEAF99BFAA0575220297
:10057800801ABFA0057522048012BF550575230196
:10058800800AE523B401058F17752203E59830E149
:07059800065398FD752200D7
:05059F00D0D0D0E032D5
:03000000020006F5
:0C000600787FE4F6D8FD7581340205A473
:00000001FF
