:1007F2000495049004800460043003C00320025076
:100802004F4E0F0E4D4C0D0C4B4A0B0A494809082E
:0C08120047460706454405044342030224
:10078E00120407E4F51BF526F52DF515751801F580
:10079E0012751A01F521F52EF52FF516F52AF51D10
:1007AE00F513F520F525F523F510F511751F0EF54A
:0607BE001C43D81080FB73
:10040700900A0574A5F0900A007418F0900A067413
:1004170010F0900A027403F0900A077401F0900537
:1004270016E4F075A88575B80175880590050F74F1
:1004370005F090051B7403F075A2FF900700E4F028
:10044700F5A175B20890070274F7F075B108900727
:10045700077430F075AA0890070174F7F0E4F5A95E
:100467009005047423F0A3740CF0A37404F09005B2
:100477001104F075CB58E4F5CD75CE0690080274DB
:10048700DFF09008067420F075D938E4F5DA75D8EE
:100497002843D810900C04F0900C03F0900C0074D3
:1004A70010F0E4FFEFC39401900C0050057413F0B3
:1004B70080037411F0900C01E030E0F9900C02E039
:1004C700FE74332FF8A6060FBF02D9E534F465335F
:1004D70060057524608003853324852419E5242469
:1004E700F6F52C7519C07524C07FFA1208237FFA18
:1004F7001208237FFA1208237FFA1208237FFA12C1
:1005070008237FFA1208237FFA1208237FFA1208BA
:10051700237FFA1208237FFA1208237FFA1208238F
:050527007FFA02082329
:10001600E51BC395185003020406E4F51B43D810EC
:1000260090050F7405F090051B7403F012081E75F9
:10003600CDC075CEFF43CB08751C01438702000077
:10004600000053CBF790051BE4F0F51C90050674F1
:1000560010F0900505E04401F09005107446F07F1D
:1000660014120823900510E04420F0900706E0449F
:1000760070F0900510E04410F0900502743BF0E437
:10008600F530900502E04480F0E0547FF0900502E0
:10009600E020E6F90530E530B405E7900501E0F526
:1000A60029900500E0F52B900502E4F0900510E09C
:1000B60054DFF0E054EFF0900706E0548FF0E529A6
:1000C60075F010A4FDACF0E4C4F854F0C868FEE581
:1000D6002BC4540F482DFDEE3CFCE5114510700273
:1000E6008021E5112408FFE43510FEC3ED9FEC9E48
:1000F6005011E51124F8FFE51034FFFED3ED9FEC17
:100106009E50077514018C108D11E51470030202C0
:1001160015E4F514753118D3ED9480EC940A400873
:10012600E51F900803020210D3ED94AAEC9409404F
:1001360011D3ED9480EC940A5008E51F9008020252
:100146000210D3ED9455EC94094011D3ED94AAEC2A
:1001560094095008E51F900801020210D3ED94009F
:10016600EC94094011D3ED9455EC94095008E51F21
:10017600900800020210D3ED94AAEC94084010D324
:10018600ED9400EC94095007E51F9007FF807BD3A0
:10019600ED9480EC94084010D3ED94AAEC940850AA
:1001A60007E51F9007FE8062D3ED9455EC94084056
:1001B60010D3ED9480EC94085007E51F9007FD805E
:1001C60049D3ED942AEC94084010D3ED9455EC9461
:1001D600085007E51F9007FB8030D3ED9400EC94A0
:1001E600084010D3ED942AEC94085007E51F9007B9
:1001F600F98017D3ED94D5EC94074013D3ED940012
:10020600EC9408500AE51F9007F793900515F090B7
:100216000506E04401F07F05120823900506E04438
:1002260002F0900515E054DFF0900510E04420F050
:100236009005027436F0E04480F0E0547FF09005BB
:1002460002E020E6F9900501E0F528A3E4F0900528
:1002560010E054DFF0900506E054FCF0E04402F0B4
:10026600900515E04420F0900506E054FDF0E044CA
:1002760001F07F05120823900506E04402F0900580
:1002860015E054DFF0900511E04410F0900510E001
:100296004420F09005027436F0E04480F0E0547F8C
:1002A600F0900502E020E6F9900501E0F527A3E4C9
:1002B600F0900510F0A3E030E5057520018005E417
:1002C600F520F525900511E054EFF090050674042D
:1002D600F090050FF0900505E054FEF0E527C39574
:1002E600284008E5279528F5278003E4F527E52229
:1002F600B40209759911E52270FC8059E522640360
:100306007061E5272517F531F4F532900C04E4F019
:10031600900C03F0900C007420F0E4F53074312555
:1003260030F8E6900C02F0E530C39401900C0050D2
:10033600057423F080037421F0900C01E030E1F99C
:100346000530E530B402D6900515E517F02527F5FA
:1003560099E52270FC900803E04402F0900705E05E
:10036600547FF0E52A6004E5136070E527D39519FC
:10037600404D0512E512D394034003751203E512AE
:10038600B4010B75180175CD8075CEC1800EE512CE
:10039600B4020E75180175CDC075CEE043CB08804A
:1003A6001275180275CD6075CEF043CB0875150130
:1003B600752601751D01E513702A852C198025E423
:1003C600F512751801852419F515F52690090AE028
:1003D60054FEF0751A01E4F52D8001E4F5CD75CED5
:1003E6000643CB08051EE52A7009E51EC39408409E
:1003F6000F8007E51EC394014006751D01E4F51E36
:0104060022D3
:1006AC00E526C39401404FE515604B751D01E4F53B
:1006BC0026F52590090AE030E008E054FEF0751AA2
:1006CC000122E52DC394084003752D07E52D25E087
:1006DC0024F2F582E43407F583E493FE74019390DD
:1006EC000902F0EEA3F090090AE04440F0E0440166
:0706FC00F0052DE4F51A22C0
:10052C00E5A120E660E521705C7FFA120823E5A1C5
:10053C0030E6030205E1E52160030205E1752101C6
:10054C00E5156401701E752A017519FFF5127518F1
:10055C0001F51BF51590090AE054FEF0751A01E43B
:10056C00F5268065751301E4F519751202751802EC
:10057C00751B01E52A6003852F1612081E75CD60C8
:10058C0075CEF0804DE5A130E64BE52160477FFA52
:10059C00120823E5A130E63DE5216039E4F521F5AB
:1005AC001590090AE054FEF0E4F52DE52A70038558
:1005BC002419E4F512751801751A01F513F525E5E2
:1005CC002A6006752E0085162F12081EE4F5CD75CF
:1005DC00CE0643CB08E5A120E15FE522705B7F01ED
:1005EC00120823E5A120E151E522704D75220190FE
:1005FC000705E04480F0759850E4F5C8F589F58D51
:10060C00758B0C75862A900803E054FDF0E4F523F5
:10061C00751BAA53B1F7E522640160FAE522B40414
:10062C0018E4F51B851999E52270FC900803E04449
:0A063C0002F0900705E0547FF02261
:10064600C3E52F9432E52E9400400EE4F52AF52EEC
:10065600F52FF516852419F525E51D600EE4F51D23
:1006660053B1F77FFA12082343B108E5157036E552
:1006760025C39405402FE4F5259009027450F0A394
:100686007402F090090AE04440F0E04401F053B1EE
:10069600F77FFA12082343B1087FFA12082390095C
:0606A6000AE054FEF02200
:1007C400900A07E020E426E51A602290050F7404DD
:1007D400F090051BE4F0E5A130E606900D007442AC
:0E07E400F043870200000000900D00E4F022B8
:05081E0053CBF77F142D
:10082300AD071FED600B7E05EED3940040F21E80F2
:01083300F7CD
:0108340022A1
:03000300020703EE
:10070300C0E0C083C08263A1FF900503E030E00F27
:10071300E054FEF0900502E04480F0E0547FF0E501
:10072300CF30E11D53CFFDE51C7016051B0526E5F3
:100733002A6008052FE52F7002052EE520600205CB
:0807430025D082D083D0E03202
:0300130002074B96
:07074B00C0E0C0D075D0082A
:10075200E59830E0275398FEAF99BFAA05752202AB
:10076200801ABFA0057522048012BF5505752301AA
:10077200800AE523B401058F17752203E59830E15D
:07078200065398FD752200EB
:05078900D0D0D0E032E9
:03000000020006F5
:0C000600787FE4F6D8FD75813402078E87
:00000001FF
